:100000000C942A000C9447000C9447000C94470071
:100010000C9447000C9447000C9447000C94470044
:100020000C9447000C9447000C9447000C94470034
:100030000C9447000C9447000C9447000C94470024
:100040000C9447000C9447000C9447000C94470014
:100050000C94470011241FBECFE5D8E0DEBFCDBF12
:1000600010E0A0E6B0E0E6EFF8E002C005900D92E7
:10007000A63FB107D9F721E0A6EFB0E001C01D927D
:10008000AC32B207E1F70E94EB020C9479040C94B5
:10009000000087B1806C87B986B1876886B90895FA
:1000A00097B1907E8F71892B87B986B1806486B9AC
:1000B000349BFECF24B185B190E0982F8827822B06
:1000C0000895982F9695969596958770913021F181
:1000D00030F09230F1F1933009F458C00895613056
:1000E00069F44BB321E030E0B90102C0660F771F1D
:1000F0008A95E2F7CB01842B8BBB08954BB321E0AB
:1001000030E0B90102C0660F771F8A95E2F7CB0194
:10011000809584238BBB0895613069F448B321E056
:1001200030E0B90102C0660F771F8A95E2F7CB0174
:10013000842B88BB089548B321E030E0B90102C0A8
:10014000660F771F8A95E2F7CB018095842388BBE1
:100150000895613069F445B321E030E0B90102C08F
:10016000660F771F8A95E2F7CB01842B85BB089534
:1001700045B321E030E0B90102C0660F771F8A95D0
:10018000E2F7CB018095842385BB0895613069F443
:1001900042B321E030E0B90102C0660F771F8A95B3
:1001A000E2F7CB01842B82BB089542B321E030E01B
:1001B000B90102C0660F771F8A95E2F7CB018095DF
:1001C000842382BB0895813041F028F0823039F0D9
:1001D000833039F008956BBB089568BB089565BB03
:1001E000089562BB0895813041F028F0823039F0E3
:1001F000833039F008C08BB3089588B3089585B370
:10020000089582B308958FEF089580E0A0C0982FDD
:10021000969596959695282F2770913061F138F034
:10022000923009F44CC0933009F46DC08FC0E82FB0
:10023000F0E0EE0FFF1FE05AFF4F9081913069F41C
:100240009AB341E050E0BA0102C0660F771F2A95C9
:10025000E2F79B01292B2ABB79C09AB341E050E019
:10026000BA0102C0660F771F2A95E2F79B0120951D
:1002700029232ABB6BC0E82FF0E0EE0FFF1FE05AE6
:10028000FF4F9081913069F497B341E050E0BA019B
:1002900002C0660F771F2A95E2F79B01292B27BB27
:1002A00055C097B341E050E0BA0102C0660F771F16
:1002B0002A95E2F79B012095292327BB47C0E82F09
:1002C000F0E0EE0FFF1FE05AFF4F9081913069F48C
:1002D00094B341E050E0BA0102C0660F771F2A953F
:1002E000E2F79B01292B24BB31C094B341E050E0DD
:1002F000BA0102C0660F771F2A95E2F79B0120958D
:10030000292324BB23C0E82FF0E0EE0FFF1FE05AA3
:10031000FF4F9081913069F491B341E050E0BA0110
:1003200002C0660F771F2A95E2F79B01292B21BB9C
:100330000DC091B341E050E0BA0102C0660F771FD3
:100340002A95E2F79B012095292321BB8F5F8032FC
:1003500008F45DCF0895CF93C82F80E00E94F3008A
:100360008F709C2F907F682F692B80E00E94E300A4
:1003700060E089E00E94610060E08BE00E94610023
:100380008FE891E00197F1F700C0000061E08BE099
:100390000E9461008FE19EE40197F1F700C0000028
:1003A00080E00E94F30090E1C99F900111248F70BA
:1003B000682F622B80E00E94E30060E089E00E94E9
:1003C000610060E08BE00E9461008FE891E001979E
:1003D000F1F700C0000061E08BE00E9461008FE354
:1003E0009FE10197F1F700C00000CF91089560E010
:1003F0008AE00E94610061E08BE00E9461002FEFC3
:1004000089EF90E0215080409040E1F700C000006B
:1004100083E30E94AB018FE891E00197F1F700C000
:10042000000082E30E94AB0188E20E94AB0186E0FB
:100430000E94AB018CE00E94AB0181E00E94AB0105
:100440008FE39FE10197F1F700C000000895CF937B
:10045000C82F80E00E94F3008F709C2F907F682F40
:10046000692B80E00E94E30061E089E00E94610066
:1004700060E08BE00E9461008FE891E00197F1F766
:1004800000C0000061E08BE00E9461008FE19EE40B
:100490000197F1F700C0000080E00E94F30090E1B6
:1004A000C99F900111248F70682F622B80E00E94F9
:1004B000E30061E089E00E94610060E08BE00E945F
:1004C00061008FE891E00197F1F700C0000061E062
:1004D0008BE00E9461008FE39FE10197F1F700C07C
:1004E0000000CF9108950F931F93CF93DF931F9236
:1004F000CDB7DEB78C01198289810AC08981F801E4
:10050000E80FF11D80810E94270289818F5F898316
:10051000898190E0F80101900020E9F73197E01B14
:10052000F10B8E179F0750F30F90DF91CF911F9122
:100530000F910895CF93DF93EC01613019F0623091
:1005400051F011C0842F8F7080680E94AB01CE01E2
:100550000E94730208C0842F8F70806C0E94AB01D0
:10056000CE010E947302DF91CF910895CF93C82FDF
:10057000613019F0623051F011C0842F8F708068A3
:100580000E94AB018C2F0E94270208C0842F8F701D
:10059000806C0E94AB018C2F0E942702CF9108959E
:1005A00081E00E9450009695879596958795909347
:1005B000F7008093F6004AE06AEF70E00E9444047E
:1005C00040E062E080EA90E00E949A028AEF90E0C8
:1005D0000E94730208950E9405010E94F7010E9483
:1005E00049000E94BA0340E061E08EEA90E00E9478
:1005F0009A0240E062E08BEB90E00E949A0284B3A2
:10060000876084BB80E00E9413040E943104813320
:1006100081F1823309F46FC08033B9F781E00E9421
:10062000AB0140E061E08EEA90E00E949A0240E077
:1006300062E08BEB90E00E949A024DE062E080E382
:100640000E94B60281E00E94AB0140E061E08BEBCA
:1006500090E00E949A024DE061E080E30E94B602C1
:1006600085B3846085BB0E94D00285B38B7F85BB38
:10067000CCCF81E00E94AB018091F8009091F9000D
:10068000009719F0019739F1C0CF85B3816085BB20
:100690000E94DD038091F8009091F90001969093FB
:1006A000F9008093F80081E00E94AB0140E061E036
:1006B00085EC90E00E949A0240E062E08BEB90E0D3
:1006C0000E949A024DE062E081E30E94B60285B387
:1006D0008E7F85BB9ACF85B3816085BB81E00E9408
:1006E000AB0140E061E08FEC90E00E949A0285B39C
:1006F0008E7F85BB8ACF81E00E94AB018091F8009C
:100700009091F900009731F1019709F07ECF85B300
:10071000826085BB0E94F8038091F8009091F900F7
:1007200001979093F9008093F80040E061E08CED30
:1007300090E00E949A0240E062E08BEB90E00E9421
:100740009A024DE062E082E30E94B60285B38D7F9B
:1007500085BB5BCF85B3826085BB81E00E94AB0126
:1007600040E061E087EE90E00E949A0285B38D7FC1
:1007700085BB4BCF81B3806281BB8FB582688FBD53
:100780008EB58B618EBD87E893E197BD86BD0895D8
:100790004AEF489F9001499F300D1124A3E8BDE224
:1007A0000E943504929582958F7089279F708927C2
:1007B00087509F4F9BBD8ABD089580E090E00E94C6
:1007C000C8032FEF89E698E1215080409040E1F77F
:1007D00000C000008AE590E00E94C8032FEF89E680
:1007E00098E1215080409040E1F700C0000008955A
:1007F0008AE590E00E94C8032FEF89E698E1215036
:1008000080409040E1F700C0000080E090E00E944E
:10081000C8032FEF89E698E1215080409040E1F72E
:1008200000C000000895882379F08130C9F488B3AE
:10083000806188BB87B3806B87BB87B38F7B87BBA7
:100840008DB180658DB9089587B38F7D87BB87B3E0
:10085000806487BB88B3806188BB8DB180648DB9AB
:100860000895779BFECF8FB10895A29FB001B39FEB
:10087000C001A39F700D811D1124911DB29F700DA9
:10088000811D1124911D0895BB274A3031F499230D
:1008900022F4BDE2909581959F4F0C945004BB27A4
:1008A000FB015527AA27880F991FAA1FA41710F02C
:1008B000A41B83955051B9F7A05DAA3308F0A95D38
:1008C000A193009779F7B111B1931192CB010C94D8
:1008D0006904DC01FC01672F71917723E1F73297FE
:1008E00004C07C916D9370836291AE17BF07C8F30B
:0608F0000895F894FFCF0B
:1008F60000000000000001010101010101010101E8
:1009060000000101010101010000000000000000DB
:1009160000000000000000000000000000000000D1
:1009260000000000000000000000000000000100C0
:1009360054656D70657261747572653A2000536C0A
:100946006176652044657669636500527820446166
:1009560074613A2000446F6F72204F70656E0041DB
:100966006C7265616479204F70656E00446F6F72BA
:1009760020436C6F736500416C7265616479204336
:060986006C6F7365640054
:00000001FF
