:100000000C942A000C943F000C943F000C943F0089
:100010000C943F000C943F000C943F000C943F0064
:100020000C943F000C943F000C943F000C943F0054
:100030000C943F000C943F000C943F000C943F0044
:100040000C943F000C943F000C943F000C943F0034
:100050000C943F0011241FBECFE5D8E0DEBFCDBF1A
:1000600010E0A0E6B0E0ECE7F7E002C005900D92EA
:10007000A63CB107D9F70E94B0020C94BC030C94C3
:100080000000982F9695969596958770913021F15E
:1000900030F09230F1F1933009F458C00895613096
:1000A00069F44BB321E030E0B90102C0660F771F5D
:1000B0008A95E2F7CB01842B8BBB08954BB321E0EB
:1000C00030E0B90102C0660F771F8A95E2F7CB01D5
:1000D000809584238BBB0895613069F448B321E097
:1000E00030E0B90102C0660F771F8A95E2F7CB01B5
:1000F000842B88BB089548B321E030E0B90102C0E9
:10010000660F771F8A95E2F7CB018095842388BB21
:100110000895613069F445B321E030E0B90102C0CF
:10012000660F771F8A95E2F7CB01842B85BB089574
:1001300045B321E030E0B90102C0660F771F8A9510
:10014000E2F7CB018095842385BB0895613069F483
:1001500042B321E030E0B90102C0660F771F8A95F3
:10016000E2F7CB01842B82BB089542B321E030E05B
:10017000B90102C0660F771F8A95E2F7CB0180951F
:10018000842382BB0895813041F028F0823039F019
:10019000833039F008956BBB089568BB089565BB43
:1001A000089562BB0895813041F028F0823039F023
:1001B000833039F008C08BB3089588B3089585B3B0
:1001C000089582B308958FEF089580E0A0C0982F1E
:1001D000969596959695282F2770913061F138F075
:1001E000923009F44CC0933009F46DC08FC0E82FF1
:1001F000F0E0EE0FFF1FE05AFF4F9081913069F45D
:100200009AB341E050E0BA0102C0660F771F2A9509
:10021000E2F79B01292B2ABB79C09AB341E050E059
:10022000BA0102C0660F771F2A95E2F79B0120955D
:1002300029232ABB6BC0E82FF0E0EE0FFF1FE05A26
:10024000FF4F9081913069F497B341E050E0BA01DB
:1002500002C0660F771F2A95E2F79B01292B27BB67
:1002600055C097B341E050E0BA0102C0660F771F56
:100270002A95E2F79B012095292327BB47C0E82F49
:10028000F0E0EE0FFF1FE05AFF4F9081913069F4CC
:1002900094B341E050E0BA0102C0660F771F2A957F
:1002A000E2F79B01292B24BB31C094B341E050E01D
:1002B000BA0102C0660F771F2A95E2F79B012095CD
:1002C000292324BB23C0E82FF0E0EE0FFF1FE05AE4
:1002D000FF4F9081913069F491B341E050E0BA0151
:1002E00002C0660F771F2A95E2F79B01292B21BBDD
:1002F0000DC091B341E050E0BA0102C0660F771F14
:100300002A95E2F79B012095292321BB8F5F80323C
:1003100008F45DCF0895CF93C82F80E00E94D300EA
:100320008F709C2F907F682F692B80E00E94C30004
:1003300060E089E00E94410060E08BE00E944100A3
:100340008FE891E00197F1F700C0000061E08BE0D9
:100350000E9441008FE19EE40197F1F700C0000088
:1003600080E00E94D30090E1C99F900111248F701A
:10037000682F622B80E00E94C30060E089E00E9449
:10038000410060E08BE00E9441008FE891E001971E
:10039000F1F700C0000061E08BE00E9441008FE3B4
:1003A0009FE10197F1F700C00000CF91089560E050
:1003B0008AE00E94410061E08BE00E9441002FEF43
:1003C00089EF90E0215080409040E1F700C00000AC
:1003D00083E30E948B018FE891E00197F1F700C061
:1003E000000082E30E948B0188E20E948B0186E07C
:1003F0000E948B018CE00E948B0181E00E948B01A6
:100400008FE39FE10197F1F700C000000895CF93BB
:10041000C82F80E00E94D3008F709C2F907F682FA0
:10042000692B80E00E94C30061E089E00E944100E6
:1004300060E08BE00E9441008FE891E00197F1F7C6
:1004400000C0000061E08BE00E9441008FE19EE46B
:100450000197F1F700C0000080E00E94D30090E116
:10046000C99F900111248F70682F622B80E00E9439
:10047000C30061E089E00E94410060E08BE00E94DF
:1004800041008FE891E00197F1F700C0000061E0C2
:100490008BE00E9441008FE39FE10197F1F700C0DC
:1004A0000000CF9108950F931F93CF93DF931F9276
:1004B000CDB7DEB78C01198289810AC08981F80124
:1004C000E80FF11D80810E94070289818F5F898377
:1004D000898190E0F80101900020E9F73197E01B55
:1004E000F10B8E179F0750F30F90DF91CF911F9163
:1004F0000F910895CF93DF93EC01613019F06230D2
:1005000051F011C0842F8F7080680E948B01CE0142
:100510000E94530208C0842F8F70806C0E948B0150
:10052000CE010E945302DF91CF910895CF93C82F3F
:10053000613019F0623051F011C0842F8F708068E3
:100540000E948B018C2F0E94070208C0842F8F709D
:10055000806C0E948B018C2F0E940702CF9108951E
:100560000E94E5000E94D7010E94970340E061E0ED
:1005700080EA90E00E947A0240E062E08EEA90E039
:100580000E947A0288EB90E00E94A50381E00E941D
:10059000770388B38F7E88BB2FEF89E698E12150DF
:1005A00080409040E1F700C000000E94B803813312
:1005B000C1F1823309F468C0803371F781E00E9491
:1005C0008B012FEF81EE94E0215080409040E1F7C5
:1005D00000C0000080E30E9492032FEF81EE94E0C0
:1005E000215080409040E1F700C0000040E061E011
:1005F00080EA90E00E947A0240E062E08EEA90E0B9
:100600000E947A024DE062E080E30E9496022FEFA2
:1006100089E698E1215080409040E1F700C0000059
:10062000BBCF81E00E948B012FEF81EE94E021503F
:1006300080409040E1F700C0000081E30E949203F7
:100640002FEF81EE94E0215080409040E1F700C010
:10065000000040E061E080EA90E00E947A0240E021
:1006600062E08EEA90E00E947A024DE062E081E36F
:100670000E9496022FEF89E698E121508040904039
:10068000E1F700C0000088CF81E00E948B012FEFCE
:1006900081EE94E0215080409040E1F700C00000DE
:1006A00082E30E9492032FEF81EE94E0215080407C
:1006B0009040E1F700C0000040E061E080EA90E097
:1006C0000E947A0240E062E08EEA90E00E947A02A4
:1006D0004DE062E082E30E9496022FEF89E698E106
:1006E000215080409040E1F700C0000055CF8823A2
:1006F00079F08130B1F488B3806188BB87B3806BB7
:1007000087BB87B38F7B87BB8DB180658DB908951B
:1007100087B38F7D87BB87B3806487BB8DB18064CF
:100720008DB908958FB9779BFECF8FB108958AB1A7
:1007300088618AB980B5846880BD87E689B910BCB4
:1007400008955D9BFECF8CB908950F931F93CF93AF
:100750008C01C0E003C00E94A103CF5FF801EC0F41
:10076000F11D80818111F7CFCF911F910F910895D5
:0C0770005F9BFECF8CB10895F894FFCF82
:10077C000000000000000101010101010101010163
:10078C000000010101010101000000000000000057
:10079C00000000000000000000000000000000004D
:1007AC00000000000000000000000000000001003C
:1007BC004D61737465722044657669636500547885
:1007CC0020446174613A200057656C636F6D65203D
:0607DC00486F6D6500008E
:00000001FF
